{
	"hadcoins.ico.sol": {
		"hadcoin_ico": {
			"abi": [
				{
					"constant": true,
					"inputs": [],
					"name": "max_hadcoins",
					"outputs": [
						{
							"name": "",
							"type": "uint256"
						}
					],
					"payable": false,
					"stateMutability": "view",
					"type": "function"
				}
			],
			"devdoc": {
				"methods": {}
			},
			"evm": {
				"assembly": "    /* \"hadcoins.ico.sol\":30:210  contract hadcoin_ico{\r... */\n  mstore(0x40, 0x60)\n    /* \"hadcoins.ico.sol\":163:170  1000000 */\n  0xf4240\n    /* \"hadcoins.ico.sol\":136:170  uint public max_hadcoins = 1000000 */\n  0x0\n  sstore\n    /* \"hadcoins.ico.sol\":30:210  contract hadcoin_ico{\r... */\n  jumpi(tag_1, iszero(callvalue))\n  0x0\n  dup1\n  revert\ntag_1:\n  dataSize(sub_0)\n  dup1\n  dataOffset(sub_0)\n  0x0\n  codecopy\n  0x0\n  return\nstop\n\nsub_0: assembly {\n        /* \"hadcoins.ico.sol\":30:210  contract hadcoin_ico{\r... */\n      mstore(0x40, 0x60)\n      calldataload(0x0)\n      0x100000000000000000000000000000000000000000000000000000000\n      swap1\n      div\n      0xffffffff\n      and\n      dup1\n      0xdf7fedf7\n      eq\n      tag_2\n      jumpi\n      0x0\n      dup1\n      revert\n        /* \"hadcoins.ico.sol\":136:170  uint public max_hadcoins = 1000000 */\n    tag_2:\n      jumpi(tag_3, iszero(callvalue))\n      0x0\n      dup1\n      revert\n    tag_3:\n      tag_4\n      jump(tag_5)\n    tag_4:\n      mload(0x40)\n      dup1\n      dup3\n      dup2\n      mstore\n      0x20\n      add\n      swap2\n      pop\n      pop\n      mload(0x40)\n      dup1\n      swap2\n      sub\n      swap1\n      return\n    tag_5:\n      sload(0x0)\n      dup2\n      jump\t// out\n\n    auxdata: 0xa165627a7a72305820c6556997bc9b77dd97018c8e90f76c9af7e5ba1eced35b52396cbe8d68e4f5690029\n}\n",
				"bytecode": {
					"linkReferences": {},
					"object": "6060604052620f42406000553415601557600080fd5b6094806100236000396000f30060606040526000357c0100000000000000000000000000000000000000000000000000000000900463ffffffff168063df7fedf714603c57600080fd5b3415604657600080fd5b604c6062565b6040518082815260200191505060405180910390f35b600054815600a165627a7a72305820c6556997bc9b77dd97018c8e90f76c9af7e5ba1eced35b52396cbe8d68e4f5690029",
					"opcodes": "PUSH1 0x60 PUSH1 0x40 MSTORE PUSH3 0xF4240 PUSH1 0x0 SSTORE CALLVALUE ISZERO PUSH1 0x15 JUMPI PUSH1 0x0 DUP1 REVERT JUMPDEST PUSH1 0x94 DUP1 PUSH2 0x23 PUSH1 0x0 CODECOPY PUSH1 0x0 RETURN STOP PUSH1 0x60 PUSH1 0x40 MSTORE PUSH1 0x0 CALLDATALOAD PUSH29 0x100000000000000000000000000000000000000000000000000000000 SWAP1 DIV PUSH4 0xFFFFFFFF AND DUP1 PUSH4 0xDF7FEDF7 EQ PUSH1 0x3C JUMPI PUSH1 0x0 DUP1 REVERT JUMPDEST CALLVALUE ISZERO PUSH1 0x46 JUMPI PUSH1 0x0 DUP1 REVERT JUMPDEST PUSH1 0x4C PUSH1 0x62 JUMP JUMPDEST PUSH1 0x40 MLOAD DUP1 DUP3 DUP2 MSTORE PUSH1 0x20 ADD SWAP2 POP POP PUSH1 0x40 MLOAD DUP1 SWAP2 SUB SWAP1 RETURN JUMPDEST PUSH1 0x0 SLOAD DUP2 JUMP STOP LOG1 PUSH6 0x627A7A723058 KECCAK256 0xc6 SSTORE PUSH10 0x97BC9B77DD97018C8E90 0xf7 PUSH13 0x9AF7E5BA1ECED35B52396CBE8D PUSH9 0xE4F569002900000000 "
				},
				"gasEstimates": {
					"creation": {
						"codeDepositCost": "29600",
						"executionCost": "20082",
						"totalCost": "49682"
					},
					"external": {
						"max_hadcoins()": "365"
					}
				},
				"methodIdentifiers": {
					"max_hadcoins()": "df7fedf7"
				}
			},
			"userdoc": {
				"methods": {}
			}
		}
	}
}