{
	"data": {
		"bytecode": {
			"linkReferences": {},
			"object": "608060405234801561001057600080fd5b5060f28061001f6000396000f3fe6080604052348015600f57600080fd5b506004361060285760003560e01c8063d18a42e114602d575b600080fd5b606c60048036036020811015604157600080fd5b81019080803573ffffffffffffffffffffffffffffffffffffffff1690602001909291905050506096565b604051808267ffffffffffffffff1667ffffffffffffffff16815260200191505060405180910390f35b60006020528060005260406000206000915054906101000a900467ffffffffffffffff168156fea265627a7a72315820cc08fb0d031d3ac943b6a8ce37880db2fd56c1baa77709422ceedfcee7b93bdb64736f6c63430005110032",
			"opcodes": "PUSH1 0x80 PUSH1 0x40 MSTORE CALLVALUE DUP1 ISZERO PUSH2 0x10 JUMPI PUSH1 0x0 DUP1 REVERT JUMPDEST POP PUSH1 0xF2 DUP1 PUSH2 0x1F PUSH1 0x0 CODECOPY PUSH1 0x0 RETURN INVALID PUSH1 0x80 PUSH1 0x40 MSTORE CALLVALUE DUP1 ISZERO PUSH1 0xF JUMPI PUSH1 0x0 DUP1 REVERT JUMPDEST POP PUSH1 0x4 CALLDATASIZE LT PUSH1 0x28 JUMPI PUSH1 0x0 CALLDATALOAD PUSH1 0xE0 SHR DUP1 PUSH4 0xD18A42E1 EQ PUSH1 0x2D JUMPI JUMPDEST PUSH1 0x0 DUP1 REVERT JUMPDEST PUSH1 0x6C PUSH1 0x4 DUP1 CALLDATASIZE SUB PUSH1 0x20 DUP2 LT ISZERO PUSH1 0x41 JUMPI PUSH1 0x0 DUP1 REVERT JUMPDEST DUP2 ADD SWAP1 DUP1 DUP1 CALLDATALOAD PUSH20 0xFFFFFFFFFFFFFFFFFFFFFFFFFFFFFFFFFFFFFFFF AND SWAP1 PUSH1 0x20 ADD SWAP1 SWAP3 SWAP2 SWAP1 POP POP POP PUSH1 0x96 JUMP JUMPDEST PUSH1 0x40 MLOAD DUP1 DUP3 PUSH8 0xFFFFFFFFFFFFFFFF AND PUSH8 0xFFFFFFFFFFFFFFFF AND DUP2 MSTORE PUSH1 0x20 ADD SWAP2 POP POP PUSH1 0x40 MLOAD DUP1 SWAP2 SUB SWAP1 RETURN JUMPDEST PUSH1 0x0 PUSH1 0x20 MSTORE DUP1 PUSH1 0x0 MSTORE PUSH1 0x40 PUSH1 0x0 KECCAK256 PUSH1 0x0 SWAP2 POP SLOAD SWAP1 PUSH2 0x100 EXP SWAP1 DIV PUSH8 0xFFFFFFFFFFFFFFFF AND DUP2 JUMP INVALID LOG2 PUSH6 0x627A7A723158 KECCAK256 0xCC ADDMOD 0xFB 0xD SUB SAR GASPRICE 0xC9 NUMBER 0xB6 0xA8 0xCE CALLDATACOPY DUP9 0xD 0xB2 REVERT JUMP 0xC1 0xBA 0xA7 PUSH24 0x9422CEEDFCEE7B93BDB64736F6C63430005110032000000 "
		},
		"gasEstimates": {
			"creation": {
				"codeDepositCost": "48400",
				"executionCost": "99",
				"totalCost": "48499"
			},
			"external": {
				"balanceReceived(address)": "1184"
			}
		},
		"methodIdentifiers": {
			"balanceReceived(address)": "d18a42e1"
		}
	},
	"abi": [
		{
			"constant": true,
			"inputs": [
				{
					"internalType": "address",
					"name": "",
					"type": "address"
				}
			],
			"name": "balanceReceived",
			"outputs": [
				{
					"internalType": "uint64",
					"name": "",
					"type": "uint64"
				}
			],
			"payable": false,
			"stateMutability": "view",
			"type": "function"
		}
	]
}