{
	"data": {
		"bytecode": {
			"linkReferences": {},
			"object": "6060604052620f42406000553415601557600080fd5b6094806100236000396000f30060606040526000357c0100000000000000000000000000000000000000000000000000000000900463ffffffff168063df7fedf714603c57600080fd5b3415604657600080fd5b604c6062565b6040518082815260200191505060405180910390f35b600054815600a165627a7a723058204ac774e2b4f3aa2c89be9bf80ae84bb4632f103ac18d6694cf4f7b42f406c7f20029",
			"opcodes": "PUSH1 0x60 PUSH1 0x40 MSTORE PUSH3 0xF4240 PUSH1 0x0 SSTORE CALLVALUE ISZERO PUSH1 0x15 JUMPI PUSH1 0x0 DUP1 REVERT JUMPDEST PUSH1 0x94 DUP1 PUSH2 0x23 PUSH1 0x0 CODECOPY PUSH1 0x0 RETURN STOP PUSH1 0x60 PUSH1 0x40 MSTORE PUSH1 0x0 CALLDATALOAD PUSH29 0x100000000000000000000000000000000000000000000000000000000 SWAP1 DIV PUSH4 0xFFFFFFFF AND DUP1 PUSH4 0xDF7FEDF7 EQ PUSH1 0x3C JUMPI PUSH1 0x0 DUP1 REVERT JUMPDEST CALLVALUE ISZERO PUSH1 0x46 JUMPI PUSH1 0x0 DUP1 REVERT JUMPDEST PUSH1 0x4C PUSH1 0x62 JUMP JUMPDEST PUSH1 0x40 MLOAD DUP1 DUP3 DUP2 MSTORE PUSH1 0x20 ADD SWAP2 POP POP PUSH1 0x40 MLOAD DUP1 SWAP2 SUB SWAP1 RETURN JUMPDEST PUSH1 0x0 SLOAD DUP2 JUMP STOP LOG1 PUSH6 0x627A7A723058 KECCAK256 0x4a 0xc7 PUSH21 0xE2B4F3AA2C89BE9BF80AE84BB4632F103AC18D6694 0xcf 0x4f PUSH28 0x42F406C7F20029000000000000000000000000000000000000000000 "
		},
		"gasEstimates": {
			"creation": {
				"codeDepositCost": "29600",
				"executionCost": "20082",
				"totalCost": "49682"
			},
			"external": {
				"max_hadcoins()": "365"
			}
		},
		"methodIdentifiers": {
			"max_hadcoins()": "df7fedf7"
		}
	},
	"abi": [
		{
			"constant": true,
			"inputs": [],
			"name": "max_hadcoins",
			"outputs": [
				{
					"name": "",
					"type": "uint256"
				}
			],
			"payable": false,
			"stateMutability": "view",
			"type": "function"
		}
	]
}